:100000000C94E1000C942A080C9403080C94DC076F
:100010000C94B5070C9409010C9409010C948E07FB
:100020000C9409010C9409010C9451080C94C0081B
:100030000C9409010C9409010C9409010C94090118
:100040000C9409010C9409010C9409010C94090108
:100050000C9409010C9409010C9409010C944407B7
:100060000C9409010C94180B0C94F20A0C940901DD
:100070000C9409010C9409010C9409010C940901D8
:100080000C9409010C9409010C9409010C940901C8
:100090000C9409010C9409010C9409010C940901B8
:1000A0000C9409010C9409010C9409010000000052
:1000B0002300260029002C002F000706050401005C
:1000C000080A0B0C0D09080B0002020200000904CB
:1000D00000000102020000052400100105240101B6
:1000E000010424020605240600010705810310000F
:1000F0004009040100020A00000007050202400056
:1001000000070583024000000403090412010002F5
:10011000EF020140FB1F0023000101020301506FA9
:100120006C6F6C7520436F72706F726174696F6E63
:1001300000506F6C6F6C7520412D537461722033C9
:100140003255340000000000240027002A002D0052
:10015000300000000000250028002B002E00310098
:10016000040404040403040502020202040302025C
:10017000020206060606060604040202020404043D
:100180000802011040804010204080408008020496
:10019000018040201002011080102040402000000B
:1001A000000200090F0000030401000C0000000021
:1001B0000000000000000000000000000000A80B8C
:1001C0000B0E11241FBECFEFDAE0DEBFCDBF22E061
:1001D000AAE9B1E001C01D92A33DB207E1F711E029
:1001E000A0E0B1E0E8E0F6E202C005900D92AA3985
:1001F000B107D9F710E0C0EED0E004C02197FE01AE
:100200000E94E70FCF3DD107C9F70E94890C0C94DB
:10021000F7120C940000FC018091B801882311F1C1
:100220003FB7F89482E08093E9002091F200822F9A
:1002300090E01816190614F481E090E0882339F054
:10024000289844E64093B7014091F100408322236F
:1002500039F02091F200211103C02BE62093E80031
:100260003FBF08958FEF9FEF08952FB7F89483E075
:100270008093E9009091E800892F807295FF04C077
:100280009091F20080E4891B2FBF08958091AF0107
:1002900081110DC082E08093AB0184E08093AC01BA
:1002A0001092AE011092AD0181E08093AF018BEA14
:1002B00091E0089581508F3008F047C0E82FF0E0BA
:1002C000EC59FE4F0C94E70F810185017301790110
:1002D0007D01A501A501A50188018E01920196016C
:1002E0009C01A501A001809180008F778093800000
:1002F0000895809180008F7DF9CF80918000877F65
:10030000F5CF84B58F7784BD089584B58F7DFBCFFD
:10031000809190008F778093900008958091900055
:100320008F7DF9CF80919000877FF5CF8091C000BD
:100330008F778093C00008958091C0008F7DF9CFA2
:100340008091C200877F8093C20008951F93CF934E
:10035000DF93282F30E0F901E256FE4F8491F90136
:10036000E158FE4FD491F901E05AFE4FC491CC23DD
:10037000A9F0162F81110E945A01EC2FF0E0EE0F28
:10038000FF1FEE5AFE4FA591B4918FB7F894EC91F0
:10039000111108C0D095DE23DC938FBFDF91CF9180
:1003A0001F910895DE2BF8CFCF93DF9390E0FC01EF
:1003B000E158FE4F2491805A9E4FFC01849188237E
:1003C000D1F090E0880F991FFC01EC5BFE4FA591E6
:1003D000B491FC01EE5AFE4FC591D49161110EC04B
:1003E0009FB7F8948C91E22FE0958E238C9328810F
:1003F000E223E8839FBFDF91CF9108958FB7F894F0
:10040000EC91E22BEC938FBFF6CF3FB7F89480913D
:10041000A7019091A801A091A901B091AA0126B5C8
:10042000A89B05C02F3F19F00196A11DB11D3FBF2C
:10043000BA2FA92F982F8827BC01CD01620F711DFB
:10044000811D911D42E0660F771F881F991F4A95F5
:10045000D1F70895CF92DF92EF92FF920E940502AA
:100460006B017C010E9405026C197D098E099F09B0
:10047000683E734081059105A8F3FF90EF90DF90EF
:10048000CF900895089540919C0150919D01209135
:100490009A0130919B0142175307B4F49091E80000
:1004A0009570E1F39091E80092FD19C08093F100FE
:1004B00080919C0190919D0101968F739927892BC2
:1004C00019F48EEF8093E80080919C0190919D013A
:1004D000019690939D0180939C0181E0089580E0B6
:1004E0000895EF92FF920F931F93CF93DF93F82E0F
:1004F000192FE62E042F81E0860F880F0E944302F9
:1005000083E00E944302CF2DD12FEC0EFD2EF11C73
:10051000CE15DF05B9F007FF13C0FE0184910E94DC
:100520004302182F80E00E9443028123219681110B
:10053000EFCFDF91CF911F910F91FF90EF90089532
:100540008881EDCF81E0F5CFDF92EF92FF920F939C
:100550001F93CF93DF93D82E8A01EB017B01E40E2A
:10056000F51ECE15DF0559F0D7FE12C0FE018491AD
:100570000E94430221968111F4CF0FEF1FEFC801B3
:10058000DF91CF911F910F91FF90EF90DF90089531
:100590008881EECF0F931F93CF93DF931F92CDB738
:1005A000DEB782E0898342E450E066EC70E080E8E8
:1005B0000E94A4020E944601DC0112960D911C913A
:1005C0000115110589F0D801ED91FC910280F381AC
:1005D000E02DBE016F5F7F4FC801099597FD04C0F4
:1005E000F80100851185ECCF89810F90DF91CF91C3
:1005F0001F910F910895615030F02091F100FC019E
:1006000020830196F8CF289884E68093B701089557
:10061000AF92BF92CF92DF92EF92FF920F931F9310
:10062000CF93DF936C017B018B01040F151FEB014E
:100630005E01AE18BF08C017D10759F06991D60105
:10064000ED91FC910190F081E02DC6010995892B77
:1006500079F7C501DF91CF911F910F91FF90EF9036
:10066000DF90CF90BF90AF900895FC01538D448DE3
:10067000252F30E0842F90E0821B930B541710F04D
:10068000CF96089501970895FC01918D828D98175A
:1006900061F0A28DAE0FBF2FB11D5D968C91928D32
:1006A0009F5F9F73928F90E008958FEF9FEF089563
:1006B000FC01918D828D981731F0828DE80FF11D2C
:1006C000858D90E008958FEF9FEF0895FC01918D47
:1006D000228D892F90E0805C9F4F821B91098F7340
:1006E0009927089589EB91E00E94660321E0892B08
:1006F00009F420E0822F089580E090E0892B29F012
:100700000E94720381110C9400000895FC01A48DD5
:10071000A80FB92FB11DA35ABF4F2C91848D90E023
:1007200001968F739927848FA689B7892C93A08906
:10073000B1898C9182748C93938D848D981306C0AB
:100740000288F389E02D80818F7D80830895EF9268
:10075000FF920F931F93CF93DF93EC0181E0888F7B
:100760009B8D8C8D981319C0E889F989808185FF4C
:1007700014C09FB7F894EE89FF896083E889F989EE
:100780008081827480839FBF81E090E0DF91CF9170
:100790001F910F91FF90EF900895F62E0B8D10E0B2
:1007A0000F5F1F4F0F731127E02E8C8D8E110CC021
:1007B0000FB607FCFACFE889F989808185FFF5CF6C
:1007C000CE010E948603F1CFEB8DEC0FFD2FF11DC2
:1007D000E35AFF4FF0829FB7F8940B8FEA89FB89A9
:1007E00080818062CFCFCF93DF93EC01888D882307
:1007F000B9F0AA89BB89E889F9898C9185FD03C084
:10080000808186FD0DC00FB607FCF7CF8C9185FF68
:10081000F2CF808185FFEDCFCE010E948603E9CF24
:10082000DF91CF9108958F929F92AF92BF92CF9216
:10083000DF92EF92FF920F931F93CF93DF936C01A0
:100840007B018A0180910B01882309F458C08091B3
:10085000B801882309F453C08091A00180FF05C02E
:100860008091E00082608093E000E801B12C8AEF83
:10087000A82E93E0892E2AE3922E209711F4BB2014
:10088000B9F10E943501811106C0AA94AA20B9F1DC
:100890000E942A02F2CF8C171D0611F00CF08C2F4B
:1008A0009FB7F8948092E9002091E80025FD02C0EE
:1008B0009FBFE3CF282F30E0C21BD30BF70181503D
:1008C00020F041914093F100FACFE20EF31EBB20DD
:1008D00021F09092E800B12CEBCF8091E80085FDEB
:1008E000E7CF9092E800BB24B394209709F3F3CFAD
:1008F0005D9884E680939F01101611063CF081E01C
:1009000090E0F6019383828310E000E0C801DF915C
:10091000CF911F910F91FF90EF90DF90CF90BF90FC
:10092000AF909F908F900895CF93DF931F92CDB794
:10093000DEB76983DC01ED91FC910280F381E02D4B
:1009400041E050E0BE016F5F7F4F09950F90DF914E
:10095000CF910895682F86E592E00C94940483E08B
:100960008093E9008091F200882319F08AE3809354
:10097000E80008950E94350190E00895CF93DF9339
:100980001F92CDB7DEB7FC018485958597FD08C021
:100990002FEF3FEF358724870F90DF91CF91089598
:1009A000CE0101960E940B01019719F4898190E014
:1009B000F3CF8FEF9FEFF0CF0F931F93CF93DF9382
:1009C0001F92CDB7DEB78C01FC018485958597FF1A
:1009D0000BC0CE0101960E940B01019771F4898131
:1009E00090E0F80195878487F801848595850F90BC
:1009F000DF91CF911F910F9108958FEF9FEFF1CF6E
:100A0000FC018485958597FD0BC09FB7F89482E023
:100A10008093E9008091F2009FBF90E001960895D5
:100A20009FB7F89482E08093E9008091F2009FBF25
:100A300090E00895CF92DF92EF92FF920F931F9371
:100A4000CF93DF93FC012FB7F8948091A30190918D
:100A5000A401A091A501B091A6012FBF028113812D
:100A6000248135816C017D01C01AD10AE20AF30AA2
:100A700097018601083211052105310508F453C09C
:100A800082839383A483B583E085E23108F0E25149
:100A9000F0E0E654FF4FE49190917B008E2F880F99
:100AA000880F80729F7D892B80937B00E770E064C4
:100AB000E0937C0080917A00806480937A0080913A
:100AC0007A0086FDFCCFEB0160917800809179007F
:100AD000782F90E080E00E945B0E20E030EC4FE742
:100AE00054E40E945A1020E030E44CE955E40E949E
:100AF000BC0E2DEC3CEC4CE151E40E945A102CE56C
:100B00003FE842E250E40E94BC0E688379838A8306
:100B10009B8381E0DF91CF911F910F91FF90EF9028
:100B2000DF90CF90089580E0F5CFCF93DF93F894D6
:100B3000FC01218580E021FF21C0EB0181858D7FB3
:100B4000818786859785A089B1894285538564858B
:100B50007585841B950B63E970E00E94B10F90E0EE
:100B600080E00E945B0E2CE53FE842E250E40E94E8
:100B7000BC0E688379838A839B8381E07894DF91BC
:100B8000CF910895CF93DF93FC01268137812F3FCA
:100B90003207E1F0EC0161E0822F0E94A6018FE5AF
:100BA00090E00197F1F760E08E810E94A6012FB7D7
:100BB000F8948091A3019091A401A091A501B09116
:100BC000A6012FBF8A839B83AC83BD83DF91CF9126
:100BD0000895CF93DF932091AE0230E0F901E25601
:100BE000FE4F8491F901E158FE4FD491F901E05A8A
:100BF000FE4FC491CC2301F181110E945A01EC2FC8
:100C0000F0E0EE0FFF1FE455FF4FA591B491EC917A
:100C1000ED2391F00E9405026093B0027093B1023F
:100C20008093B2029093B3028091AF02816080936F
:100C3000AF02DF91CF9108950E9405026093B40244
:100C40007093B5028093B6029093B7028091AF0281
:100C50008260EDCFFC0101900020E9F73197AF01F0
:100C6000481B590BBC0186E592E00C9413048F924B
:100C70009F92AF92BF920F931F93CF93DF93CDB705
:100C8000DEB7A1970FB6F894DEBF0FBECDBF19A295
:100C9000423008F44AE08E010F5D1F4F842E912CE4
:100CA000B12CA12CA50194010E94C50FE62FB9011A
:100CB000CA01EA30F4F4E05DD801EE938D01232BF4
:100CC000242B252B79F790E080E0109719F0CD01C7
:100CD0000E942A06A1960FB6F894DEBF0FBECDBFC4
:100CE000DF91CF911F910F91BF90AF909F908F9008
:100CF0000895E95CE1CFCF93DF930E942A06EC01CF
:100D000085E691E00E942A068C0F9D1FDF91CF910E
:100D100008950F931F93CF93DF93EC0188819981FE
:100D2000009759F02A813B812617370730F081E080
:100D3000DF91CF911F910F9108958B016F5F7F4FCE
:100D40000E942A12009759F0998388831B830A8393
:100D50002C813D81232B59F7FC011082E8CF80E0E4
:100D6000E7CF8F929F92AF92BF92CF92DF92EF9296
:100D7000FF920F931F93CF93DF9300D0CDB7DEB7D1
:100D80008C016B01812C7C0188E0E80EF11C89EB61
:100D900091E00E946603892B09F466C089EB91E01B
:100DA0000E944403982EE2E58E1789F389831A8204
:100DB000F801A484B584FFEFAF1ABF0AB501C701DB
:100DC0000E948906882379F0F80120853185848581
:100DD0009585BE016F5F7F4F820F931F0E94F012B7
:100DE000F801B586A486FDE09F12D1CFF801808579
:100DF0009185009769F10E941A0E5B0170E060E036
:100E0000C7010E948906F80120853185811124C01F
:100E10002115310519F0C9010E94A111F8011186AF
:100E200010861586148613861286B50190E080E040
:100E30000E945B0E2CE53FE842E250E40E94BC0EAB
:100E4000F6016083718382839383882483949FCF88
:100E500060E070E0CB01D1CF1586148667E671E0C3
:100E6000C9010E94F012E1CF882D0F900F90DF9101
:100E7000CF911F910F91FF90EF90DF90CF90BF9097
:100E8000AF909F908F9008951F920F920FB60F9280
:100E900011242F933F938F939F93AF93BF93809190
:100EA000A3019091A401A091A501B091A601309158
:100EB000A20123E0230F2D3758F50196A11DB11D86
:100EC0002093A2018093A3019093A401A093A50174
:100ED000B093A6018091A7019091A801A091A901CA
:100EE000B091AA010196A11DB11D8093A701909315
:100EF000A801A093A901B093AA01BF91AF919F91BE
:100F00008F913F912F910F900FBE0F901F901895CA
:100F100026E8230F0296A11DB11DD2CF1F920F927A
:100F20000FB60F9211242F933F934F935F936F93BC
:100F30007F938F939F93AF93BF93EF93FF93E09132
:100F40001401F09115010995FF91EF91BF91AF91B7
:100F50009F918F917F916F915F914F913F912F91D1
:100F60000F900FBE0F901F9018951F920F920FB603
:100F70000F9211242F933F934F935F936F937F931F
:100F80008F939F93AF93BF93EF93FF93E0911201E1
:100F9000F09113010995FF91EF91BF91AF919F914E
:100FA0008F917F916F915F914F913F912F910F9012
:100FB0000FBE0F901F9018951F920F920FB60F92B1
:100FC00011242F933F934F935F936F937F938F934E
:100FD0009F93AF93BF93EF93FF93E0911001F09134
:100FE00011010995FF91EF91BF91AF919F918F9161
:100FF0007F916F915F914F913F912F910F900FBE15
:101000000F901F9018951F920F920FB60F921124F8
:101010002F933F934F935F936F937F938F939F9300
:10102000AF93BF93EF93FF93E0910E01F0910F0107
:101030000995FF91EF91BF91AF919F918F917F9112
:101040006F915F914F913F912F910F900FBE0F9035
:101050001F9018951F920F920FB60F9211242F9385
:101060003F934F935F936F937F938F939F93AF9330
:10107000BF93EF93FF93E0910C01F0910D0109955F
:10108000FF91EF91BF91AF919F918F917F916F9160
:101090005F914F913F912F910F900FBE0F901F9036
:1010A00018951F920F920FB60F9211248F939F9352
:1010B0008091E1009091E100937F9093E10083FFA4
:1010C0000FC01092E90091E09093EB001092EC00B9
:1010D00092E39093ED001092B80198E09093F000A5
:1010E00082FF22C093E09093E9009091F20099234F
:1010F00019F09AE39093E80090919F01992341F0B1
:1011000090919F01915090939F01911101C05D9A20
:101110009091B701992341F09091B701915090932C
:10112000B701911101C0289A84FF18C08091E20094
:101130008E7E81608093E2008091E1008F7E8093BB
:10114000E1008091A0018E7E80618093A0019F913B
:101150008F910F900FBE0F901F90189580FFF7CFC3
:101160008091E2008E7E80618093E2008091E100B8
:101170008E7E8093E1008091A0018E7E8160E5CF1C
:101180001F920F920FB60F921124CF92DF92EF921F
:10119000FF920F931F932F933F934F935F936F9300
:1011A0007F938F939F93AF93BF93EF93FF93CF93CF
:1011B000DF93CDB7DEB76C97DEBFCDBF1092E900ED
:1011C0008091E80083FF25C068E0CE0145960E942B
:1011D000FB0282EF8093E8008D8987FF39C09091F0
:1011E000E80090FFFCCF982F907609F034C19E89DB
:1011F0004F89588D2F89F88C911131C0803861F555
:101200008091A1018093F1001092F1008EEF809304
:10121000E8006C960FB6F894DEBF0FBECDBFDF912D
:10122000CF91FF91EF91BF91AF919F918F917F915E
:101230006F915F914F913F912F911F910F91FF906F
:10124000EF90DF90CF900F900FBE0F901F901895EA
:101250009EEF9093E800C7CF1092F100D5CF913068
:1012600059F48111D3CF4130510581F68091A1010C
:101270008D7F8093A101CACF933049F48111C6CFED
:101280004130510519F68091A1018260F2CF95306D
:1012900041F48091E80080FFFCCF20682093E300B8
:1012A000B5CF963009F0A9C00B8D1C8D22E01092AD
:1012B000E90010929D0110929C01F2122EC0109232
:1012C0009B0110929A010E94CA021F8299E09983A1
:1012D000FA8291E09E8390EA98879AEF998720910D
:1012E0009C0130919D01275F3F4F3C832B838D8371
:1012F0001092E90010929D0110929C0110939B01A5
:1013000000939A0149E050E0BE016F5F7F4F80E09B
:101310000E94A4020E94CA0279CF10939B010093FD
:101320009A010E944601DC0112960D911C91011553
:10133000110509F451C1D801ED91FC910480F581AA
:10134000E02DBE016B5E7F4FC8010995009709F043
:101350003EC1F80100851185EACFF3E0FF120EC00F
:101360008F89882309F440C0823061F440E862E14B
:1013700081E391E00E947102811148CF81E2809364
:10138000EB0047CF813029F440E862E18EE191E043
:10139000F1CF833099F70E944601DC011296ED905F
:1013A000FC908E010F5F1F4F6801E114F10479F08A
:1013B000D701ED91FC910680F781E02DB801C701BE
:1013C0000995080F111DF701E084F184EECFD801D3
:1013D0001C92F60101900020E9F73197BF016C19CA
:1013E0007D0940E0C601C6CF68E071E0FB01449191
:1013F00050E080E80E94A40209CF973009F4BECFE4
:10140000983021F481E08093F10000CF993009F009
:10141000FDCE837009F0B2CFEDE1F1E081E031E083
:1014200096E32191222371F08093E9003093EB0041
:10143000DF0111972C912093EC009093ED008F5FCA
:10144000873079F78EE78093EA001092EA008F895F
:101450008093B801DBCE8B8D9C8D1092E9001092A9
:101460009D0110929C0190939B0180939A01898D1C
:10147000811192C08E899D89913A49F4813209F097
:101480007DCF47E050E064E071E080E0B3CF91327F
:1014900009F074CF833269F48F89988DB0E0A0E0B1
:1014A0008093000190930101A0930201B093030186
:1014B000ADCE803269F48091E80082FFFCCF67E016
:1014C00084E091E00E94FB028BEF8093E8009ECEC7
:1014D000823209F09BCE8F8980930B01EEEFFFE7FC
:1014E000859194918B3F9C4D51F1E0E0F8E0809123
:1014F000040190910501A0910601B0910701803B84
:101500009440A105B105F1F480910B0180FD1AC052
:10151000EE3F8AE0F80789F587E797E791838083B4
:101520008091600080939E0188E19BE00FB6F89463
:10153000A895809360000FBE9093600067CEEEEF99
:10154000FAE0D5CF808191818737974709F05ECE49
:10155000A8958091600088618093600080919E01D1
:1015600080936000EE3F2AE0F20789F08091FE0A46
:101570009091FF0A9183808349CE80819181873742
:10158000980751F29093FF0A8093FE0AC5CF1092FC
:10159000FF0A1092FE0A3ACE0E944601DC01129622
:1015A0000D911C910115110509F4E8CED801ED91BA
:1015B000FC910190F081E02DBE016B5E7F4FC80170
:1015C0000995811123CEF80100851185EBCF1816FE
:1015D00019060CF41BCED2CEF1E0FF12BECE6CE0A9
:1015E00071E004CF1F920F920FB60F9211242F9328
:1015F0003F934F935F936F937F938F939F93AF939B
:10160000BF93EF93FF9389EB91E00E948603FF91D4
:10161000EF91BF91AF919F918F917F916F915F916A
:101620004F913F912F910F900FBE0F901F901895E3
:101630001F920F920FB60F9211242F938F939F93A7
:10164000EF93FF93E091C901F091CA018081E0918D
:10165000CF01F091D00182FD1BC090818091D20119
:101660008F5F8F732091D301821741F0E091D201F7
:10167000F0E0E754FE4F958F8093D201FF91EF91F8
:101680009F918F912F910F900FBE0F901F901895E3
:101690008081F4CFCF93DF93EC0189E691E00E9443
:1016A0007B068E819F818F3F980719F061E00E9431
:1016B000D40188E691E0DF91CF910C947B06CF9323
:1016C000DF93EC018BE791E00E947B06CE010E9444
:1016D0004A0B60E088850E94D4018AE791E0DF919F
:1016E000CF910C947B060E944A0BE9EBF1E0A089B4
:1016F000B18982E08C93A485B5851C92A685B785B7
:101700008FEC8C93108EA489B58986E08C93A28986
:10171000B3898C9180618C93A289B3898C91886004
:101720008C93A289B3898C9180688C930288F38909
:10173000E02D80818F7D80830895CF93DF93EC012E
:101740000E944A0B60E08885DF91CF910C94D40110
:101750001092BC011092BB0188EE93E0A0E0B0E0D3
:101760008093BD019093BE01A093BF01B093C001CF
:1017700027E231E03093BA012093B9012DEC30E03B
:101780003093C6012093C5012CEC30E03093C801A2
:101790002093C70128EC30E03093CA012093C9019F
:1017A00029EC30E03093CC012093CB012AEC30E0DF
:1017B0003093CE012093CD012EEC30E03093D00158
:1017C0002093CF011092D2011092D3011092D40134
:1017D0001092D501109259021092580280935A0229
:1017E00090935B02A0935C02B0935D0289E391E069
:1017F00090935702809356028FEF9FEF909363026E
:10180000809362021092C8021092C9021092CA021A
:101810001092CB028FEF90E09093CD028093CC0298
:101820002FE531E03093C7022093C60222E12093D6
:10183000CE021092BA021092BB021092BC02109219
:10184000BD029093BF028093BE0285E591E0909324
:10185000B9028093B8021092C1021092C002109295
:10186000C3021092C2021092C5021092C40270E02C
:1018700060E080EC92E00E9489062091C0023091E5
:10188000C10281113CC02115310519F0C9010E9426
:10189000A1111092C1021092C0021092C5021092C2
:1018A000C4021092C3021092C2021092A8021092B7
:1018B000A9021092AA021092AB028FEF90E09093CF
:1018C000AD028093AC028BE491E09093A7028093E9
:1018D000A6021092AF021092B0021092B1021092C2
:1018E000B2021092B3021092B4021092B50210929A
:1018F000B6021092B70282E08093AE020895109271
:10190000C5021092C40267E671E0C9010E94F0129C
:10191000CCCFCF93DF9300D000D0CDB7DEB7789493
:1019200084B5826084BD84B5816084BD85B58260E4
:1019300085BD85B5816085BD80916E008160809395
:101940006E001092810080918100826080938100FE
:10195000809181008160809381008091800081600E
:1019600080938000809191008260809391008091AB
:1019700091008160809391008091900081608093BC
:1019800090008091C10084608093C1008091C1006B
:1019900082608093C1008091C10081608093C1000A
:1019A0008091C30081608093C3008091C0008260F9
:1019B0008093C0008091C20081608093C2008091BA
:1019C0007A00846080937A0080917A0082608093AC
:1019D0007A0080917A00816080937A0080917A0009
:1019E000806880937A001092B8011092A101109241
:1019F000A0018091D70081608093D70080EA809316
:101A0000D80089B5806189BD89B5826089BD09B476
:101A100000FEFDCF0E942A028091D8008F7C806159
:101A20008093D8008091E000807F8093E0008091D7
:101A3000E1008E7E8093E1008DE08093E200559A74
:101A4000209A8FEF9FEF909363028093620286EA61
:101A500092E00E945F0B86EC92E00E949D0B88EB67
:101A600092E00E94730B89EE95E0909313018093AE
:101A70001201809169008F73806480936900EB9AF2
:101A800000E010E019821A821B821C82BE016F5F87
:101A90007F4F88EB92E00E94B106882321F12FB797
:101AA000F8946091A3017091A4018091A501909197
:101AB000A6012FBF4AE00E94370689E00E94AA04CF
:101AC000C980DA80EB80FC80A7019601C701B601CE
:101AD0000E940011882389F08DE891E00E942A0677
:101AE0008AE00E94AA040115110561F20E947203A6
:101AF000882341F20E940000C5CF46015701E894B7
:101B0000B7F82FEF3FEF4FE75FE7C501B4010E9441
:101B1000001181110DC02FEF3FEF4FE75FE7C501C7
:101B2000B4010E94560E18161CF481E991E0D6CF3C
:101B30002FEF3FEF4FE75FE4C701B6010E94FB10B4
:101B400018161CF485E991E0C9CF2FEF3FEF4FE75E
:101B50005FECC701B6010E94560E87FDF3CF20E06F
:101B600030E0A901C701B6010E94560E87FF07C0E9
:101B70008DE20E94AA04F7FAF094F7F8F0942AE0B4
:101B800037ED43EA5BE3C701B6010E94EE0F4B015C
:101B90005C010E94CC106B017C010E945B0E9B01DA
:101BA000AC01C501B4010E94ED0F4B015C014AE09C
:101BB000C701B6010E9437068EE20E94AA0420E007
:101BC00030E040E251E4C501B4010E94BC0E4B017B
:101BD0005C010E94CC106B01F12CE12C4AE0C701A2
:101BE000B6010E943706C701B6010E945B0E9B0139
:101BF000AC01C501B4010E94ED0F20E030E040E2ED
:101C000051E40E94BC0E0E94CC1090E080E04AE0BB
:101C10000E94370665CF85E591E09093B9028093E5
:101C2000B8028091C0029091C102009711F00C940B
:101C3000A11108951F93FC0199278827BC01E894FE
:101C400011911032E9F3193010F01E30C8F31B3235
:101C500051F01D3249F4689406C00E94410E610F94
:101C6000711D811D911D119110531A30B0F33EF476
:101C700090958095709561957F4F8F4F9F4F1F91E5
:101C80000895592F482F372F262F660F771F881F4B
:101C9000991F660F771F881F991F620F731F841F7C
:101CA000951F660F771F881F991F08950E94980E31
:101CB00008F481E00895E89409C097FB3EF49095FC
:101CC0008095709561957F4F8F4F9F4F9923A9F015
:101CD000F92F96E9BB279395F695879577956795A4
:101CE000B795F111F8CFFAF4BB0F11F460FF1BC0E8
:101CF0006F5F7F4F8F4F9F4F16C0882311F096E97B
:101D000011C0772321F09EE8872F762F05C0662328
:101D100071F096E8862F70E060E02AF09A95660FE1
:101D2000771F881FDAF7880F9695879597F908959A
:101D3000990F0008550FAA0BE0E8FEEF16161706DC
:101D4000E807F907C0F012161306E407F50798F044
:101D5000621B730B840B950B39F40A2661F0232B5D
:101D6000242B252B21F408950A2609F4A140A695D9
:101D70008FEF811D811D08950E94CF0E0C94400F9E
:101D80000E94320F38F00E94390F20F0952311F095
:101D90000C94290F0C942F0F11240C94740F0E9493
:101DA000510F70F3959FC1F3950F50E0551F629F3F
:101DB000F001729FBB27F00DB11D639FAA27F00DA4
:101DC000B11DAA1F649F6627B00DA11D661F829FCB
:101DD0002227B00DA11D621F739FB00DA11D621FB0
:101DE000839FA00D611D221F749F3327A00D611DCD
:101DF000231F849F600D211D822F762F6A2F1124AF
:101E00009F5750409AF0F1F088234AF0EE0FFF1FE1
:101E1000BB1F661F771F881F91505040A9F79E3F38
:101E2000510580F00C94290F0C94740F5F3FE4F37C
:101E3000983ED4F3869577956795B795F795E7958E
:101E40009F5FC1F7FE2B880F911D9695879597F997
:101E5000089597F99F6780E870E060E008959FEF2C
:101E600080EC089500240A94161617061806090631
:101E7000089500240A941216130614060506089500
:101E8000092E0394000C11F4882352F0BB0F40F488
:101E9000BF2B11F460FF04C06F5F7F4F8F4F9F4FC8
:101EA000089557FD9058440F551F59F05F3F71F04A
:101EB0004795880F97FB991F61F09F3F79F08795B1
:101EC0000895121613061406551FF2CF4695F1DF3A
:101ED00008C0161617061806991FF1CF86957105CA
:101EE000610508940895E894BB2766277727CB01FE
:101EF00097F908952F923F924F925F926F927F923F
:101F00008F929F92AF92BF92CF92DF92EF92FF9209
:101F10000F931F93CF93DF93CDB7DEB7CA1BDB0BB5
:101F20000FB6F894DEBF0FBECDBF09942A8839885A
:101F300048885F846E847D848C849B84AA84B98461
:101F4000C884DF80EE80FD800C811B81AA81B9816D
:101F5000CE0FD11D0FB6F894DEBF0FBECDBFED0181
:101F60000895AA1BBB1B51E107C0AA1FBB1FA617E0
:101F7000B70710F0A61BB70B881F991F5A95A9F732
:101F800080959095BC01CD010895A1E21A2EAA1B5F
:101F9000BB1BFD010DC0AA1FBB1FEE1FFF1FA21719
:101FA000B307E407F50720F0A21BB30BE40BF50B16
:101FB000661F771F881F991F1A9469F7609570959F
:101FC000809590959B01AC01BD01CF010895EE0F66
:101FD000FF1F0590F491E02D09945058BB27AA27C4
:101FE0000E9405100C94400F0E94320F38F00E949E
:101FF000390F20F039F49F3F19F426F40C942F0F79
:102000000EF4E095E7FB0C94290FE92F0E94510F85
:1020100058F3BA17620773078407950720F079F41D
:10202000A6F50C94730F0EF4E0950B2EBA2FA02D8D
:102030000B01B90190010C01CA01A0011124FF2775
:10204000591B99F0593F50F4503E68F11A16F04070
:10205000A22F232F342F4427585FF3CF469537956F
:102060002795A795F0405395C9F77EF41F16BA0B34
:10207000620B730B840BBAF09150A1F0FF0FBB1FE2
:10208000661F771F881FC2F70EC0BA0F621F731F2B
:10209000841F48F4879577956795B795F7959E3F88
:1020A00008F0B0CF9395880F08F09927EE0F979519
:1020B000879508950E946E100C94400F0E94390F6E
:1020C00058F00E94320F40F029F45F3F29F00C9441
:1020D000290F51110C94740F0C942F0F0E94510F63
:1020E00068F39923B1F3552391F3951B550BBB2747
:1020F000AA2762177307840738F09F5F5F4F220F8C
:10210000331F441FAA1FA9F335D00E2E3AF0E0E882
:1021100032D091505040E695001CCAF72BD0FE2FCC
:1021200029D0660F771F881FBB1F26173707480760
:10213000AB07B0E809F0BB0B802DBF01FF27935818
:102140005F4F3AF09E3F510578F00C94290F0C94A4
:10215000740F5F3FE4F3983ED4F3869577956795C7
:10216000B795F7959F5FC9F7880F911D969587954D
:1021700097F90895E1E0660F771F881FBB1F62176C
:1021800073078407BA0720F0621B730B840BBA0B2A
:10219000EE1F88F7E09508950E94590F88F09F5729
:1021A00098F0B92F9927B751B0F0E1F0660F771F7B
:1021B000881F991F1AF0BA95C9F714C0B13091F071
:1021C0000E94730FB1E008950C94730F672F782F5E
:1021D0008827B85F39F0B93FCCF386957795679536
:1021E000B395D9F73EF490958095709561957F4FA2
:1021F0008F4F9F4F08950E94980E08F48FEF089517
:102200000E94980E880B990B08950F931F93CF93FC
:10221000DF938230910510F482E090E0E091D102EA
:10222000F091D20230E020E0B0E0A0E0309799F4E5
:102230002115310509F44AC0281B390B243031051A
:10224000D8F58A819B816115710589F1FB01938322
:102250008283FE0111C040815181028113814817A0
:102260005907E0F04817590799F4109761F0129652
:102270000C93129713961C933296CF01DF91CF9156
:102280001F910F9108950093D1021093D202F4CFC1
:102290002115310551F04217530738F0A901DB0130
:1022A0009A01BD01DF01F801C1CFEF01F9CF909391
:1022B000D2028093D102CDCFFE01E20FF31F8193B2
:1022C00091932250310939832883D7CF2091CF02AF
:1022D0003091D002232B41F4209118013091190143
:1022E0003093D0022093CF02209116013091170134
:1022F0002115310541F42DB73EB740911A01509197
:102300001B01241B350BE091CF02F091D002E217A4
:10231000F307A0F42E1B3F0B2817390778F0AC0108
:102320004E5F5F4F2417350748F04E0F5F1F5093E5
:10233000D0024093CF02819391939FCFF0E0E0E0F1
:102340009CCFCF93DF930097E9F0FC013297138283
:102350001282A091D102B091D202ED0130E020E0D2
:102360001097A1F420813181820F931F2091CF0219
:102370003091D0022817390709F061C0F093D002DC
:10238000E093CF02DF91CF910895EA01CE17DF07E6
:10239000E8F54A815B819E0141155105B1F7E901DC
:1023A000FB83EA8349915991C40FD51FEC17FD07B0
:1023B00061F4808191810296840F951FE9019983D0
:1023C0008883828193819B838A83F0E0E0E0129688
:1023D0008D919C9113970097B9F52D913C91119790
:1023E000CD010296820F931F2091CF023091D0022F
:1023F0002817390739F6309751F51092D20210920A
:10240000D102B093D002A093CF02BCCFD383C283BA
:1024100040815181840F951FC817D90761F44E5F21
:102420005F4F88819981480F591F518340838A816A
:102430009B81938382832115310509F0B0CFF093FE
:10244000D202E093D1029ECFFD01DC01C0CF138206
:102450001282D7CFB0E0A0E0E0E3F2E10C947C0F71
:102460008C01009751F4CB010E9405118C01C80129
:10247000CDB7DEB7E0E10C94980FFC01E60FF71F33
:102480009C0122503109E217F30708F49DC0D901DD
:10249000CD91DC911197C617D70798F0C530D105BB
:1024A00030F3CE0104978617970708F3C61BD70BA6
:1024B0002297C193D1936D937C93CF010E94A11178
:1024C000D6CF5B01AC1ABD0A4C018C0E9D1EA091AB
:1024D000D102B091D202512C412CF12CE12C109759
:1024E00031F58091CF029091D0028815990509F0BD
:1024F0005CC04616570608F058C0809116019091AE
:102500001701009741F48DB79EB740911A01509181
:102510001B01841B950BE817F90708F055C0F093D1
:10252000D002E093CF02F90171836083A0CF8D9137
:102530009C91119712966C90129713967C9013971A
:10254000A815B90559F56C0142E0C40ED11CCA1496
:10255000DB0420F1AC014A195B09DA0112961597E8
:1025600080F06282738251834083D9016D937C93A2
:10257000E114F10471F0D7011396FC93EE931297D6
:1025800076CF22968C0F9D1FF90191838083F301F2
:10259000EFCFF093D202E093D10269CF48165906EB
:1025A00008F42C017D01D3019ACFCB010E940511C3
:1025B0007C01009749F0AE01B8010E94E712C80102
:1025C0000E94A111870153CF10E000E050CFFB0122
:1025D000DC0102C001900D9241505040D8F708959F
:1025E000FB01DC0101900D920020E1F7089510E05D
:1025F000C0EED0E004C0FE010E94E70F2196C13E6C
:08260000D107C9F7F894FFCFE0
:10260800FFFFFFFF00E1000000000000420242025D
:102618004202420242020000D302800000C18081CF
:1026280000000000000000A70308033503F3036659
:1026380003440358030000000094041304BA04AFD1
:10264800040005BE04DC04000000005F0B9505C211
:102658000500000000730BB106C205000000009DD4
:102668000B1A05C2050D0A002F4D6178426F746977
:10267800783A3A696E69742829002F4D6178426F5B
:10268800746978543A3A696E69742829006E616EE3
:0A26980000696E66006F76660000B0
:00000001FF
